:100000000C9472000C94BF090C94E8090C949100B4
:100010000C9491000C94110A0C943A0A0C949100DF
:100020000C9491000C9491000C9491000C9491000C
:100030000C9491000C9491000C9491000C94E802A3
:100040000C9491000C945B030C9491000C9491001F
:100050000C942E030C9491000C9491000C9491003C
:100060000C9491000C9493000C94B5000C94E60051
:100070000C9491000C9410080C9491000C94910035
:100080000C9491000C9491000C9491000C949100AC
:100090000C94DC010C9400020C9431020C9491003D
:1000A0000C9491000C9491000C9491000C9491008C
:1000B0000C9491000C9491000C9491000C94E50325
:1000C0000C9491000C9491000C94B8030C94910042
:1000D0000C9491000C9491000C945A040C947C04A0
:1000E0000C94AA0411241FBECFEFD1E2DEBFCDBF16
:1000F00012E0A0E0B2E0EAEAFDE200E00BBF02C0DD
:1001000007900D92A832B107D9F717E0A8E2B2E044
:1001100001C01D92AD39B107E1F70E945A0C0C9451
:10012000D3160C9400001F920F920FB60F920BB6CD
:100130000F9211248F939F93EF93FF939091C6009A
:1001400080915C02EBE5F2E0E80FF11D92838F5F96
:1001500080935C02FF91EF919F918F910F900BBE66
:100160000F900FBE0F901F9018951F920F920FB611
:100170000F920BB60F9211248F939F93EF93FF93DF
:1001800090915E0380915D039817B9F080915D03B3
:10019000E82FF0E0E35AFC4F92819093C6008F5F06
:1001A00080935D03FF91EF919F918F910F900BBE14
:1001B0000F900FBE0F901F9018958091C1008F7DFA
:1001C0008093C10082B1805882B9ECCF1F920F9208
:1001D0000FB60F9211240F900FBE0F901F9018951D
:1001E00010925C0280915C0280935B0210925E032D
:1001F00080915E0380935D03E0ECF0E0808182609B
:100200008083E4ECF0E082E290E09183808380815F
:10021000918186E08093C200E1ECF0E088E1808388
:100220008081806880830F9A08959B01AC01E0EC87
:10023000F0E080818260808360E074E284EF90E08F
:100240000E9469132C5F3F4F4F4F5F4FCA01B901A6
:1002500028E030E040E050E00E9469132150304037
:10026000E4ECF0E03183208320813181C9010895DD
:1002700090915C0280915B02981769F080915B021B
:10028000E82FF0E0E55AFD4F228130E08F5F809348
:100290005B02C90108952FEF3FEFC90108959091C6
:1002A0005E03EDE5F3E0E90FF11D82839F5F90931C
:1002B0005E03E1ECF0E0908190629083282F332779
:1002C00027FD3095932F0895DC018C918823C9F088
:1002D000119620E030E02F5F3F4F90915E03E92FB1
:1002E000F0E0E35AFC4F82839F5F90935E0380911E
:1002F000C10080628093C1008D91882361F7C9019C
:10030000089520E030E0FBCFDF93CF93CDB7DEB789
:10031000EC970FB6F894DEBF0FBECDBFFE01EF5BCA
:10032000FF4F41915191CE0101966CE370E09F0126
:100330000E94C31329812223A1F0DE01129630917D
:100340005E03E32FF0E0E35AFC4F22833F5F3093DC
:100350005E032091C10020622093C1002D912223D1
:1003600071F7EC960FB6F894DEBF0FBECDBFCF91FC
:10037000DF910895FC0116161706DCF420E030E04A
:10038000919180915E03A82FB0E0A35ABC4F1296C2
:100390009C9312978F5F80935E038091C10080626F
:1003A0008093C1002F5F3F4F2617370749F7C901D8
:1003B000089520E030E0FBCF1F920F920FB60F920E
:1003C0000BB60F9211248F939F93EF93FF9390910D
:1003D000CE008091E204E82FF0E0EF77F070EF516B
:1003E000FB4F92838F5F8093E204FF91EF919F9187
:1003F0008F910F900BBE0F900FBE0F901F9018950E
:100400001F920F920FB60F920BB60F9211248F937B
:100410009F93EF93FF939091600480915F049817EE
:10042000D1F0A59A80915F04E82FF0E0EF77F070AB
:10043000E15AFB4F92819093CE008F5F80935F04CF
:10044000FF91EF919F918F910F900BBE0F900FBE78
:100450000F901F9018958091C9008F7D8093C900DF
:10046000EFCF1F920F920FB60F9211248F939F938D
:100470009091600480915F04981739F09F918F915B
:100480000F900FBE0F901F90189580E18A95F1F79D
:10049000A5989F918F910F900FBE0F901F90189568
:1004A0009D9AA5981092E2048091E2048093E10461
:1004B000109260048091600480935F04E8ECF0E0A7
:1004C000808182608083ECECF0E082E290E09183B6
:1004D00080838081918186E08093CA0088ED80933B
:1004E000C90008959B01AC01E8ECF0E080818260D6
:1004F000808360E074E284EF90E00E9469132C5FD7
:100500003F4F4F4F5F4FCA01B90128E030E040E054
:1005100050E00E94691321503040ECECF0E0318350
:10052000208320813181C90108959091E204809156
:10053000E104981779F08091E104E82FF0E0EF777B
:10054000F070EF51FB4F228130E08F5F8093E10428
:10055000C90108952FEF3FEFC901089590916004FC
:10056000E92FF0E0EF77F070E15AFB4F82839F5F55
:1005700090936004E9ECF0E0908190629083282FE2
:10058000332727FD3095932F089516161706ECF4A0
:10059000A82FB92F20E030E09D9180916004E82FD2
:1005A000F0E0EF77F070E15AFB4F92838F5F80931A
:1005B00060048091C90080628093C9002F5F3F4F23
:1005C0002617370749F7C901089520E030E0FBCF2F
:1005D0001F920F920FB60F920BB60F9211242F930A
:1005E0003F934F935F936F937F938F939F93AF93BB
:1005F000BF93EF93FF93E0916305F091640530970B
:1006000009F00995FF91EF91BF91AF919F918F9163
:100610007F916F915F914F913F912F910F900BBE02
:100620000F900FBE0F901F90189587E08093B10038
:1006300081E0809370000895909364058093630532
:10064000009731F080917000816080937000089570
:10065000809170008E7F8093700008951F920F929A
:100660000FB60F920BB60F9211242F933F934F9317
:100670005F936F937F938F939F93AF93BF93EF930A
:10068000FF93E0916705F0916805309709F00995AF
:10069000FF91EF91BF91AF919F918F917F916F915A
:1006A0005F914F913F912F910F900BBE0F900FBE16
:1006B0000F901F9018951F920F920FB60F920BB6C6
:1006C0000F9211242F933F934F935F936F937F93D8
:1006D0008F939F93AF93BF93EF93FF93E091650543
:1006E000F0916605309709F00995FF91EF91BF9160
:1006F000AF919F918F917F916F915F914F913F91BA
:100700002F910F900BBE0F900FBE0F901F9018955A
:1007100082E08093810080936F0080E395E790935F
:1007200089008093880008959093680580936705F9
:10073000009731F080916F00816080936F00089581
:1007400080916F008E7F80936F000895909366056F
:1007500080936505009731F080916F0082608093EF
:100760006F00089580916F008D7F80936F000895D2
:100770001F920F920FB60F920BB60F9211242F9368
:100780003F934F935F936F937F938F939F93AF9319
:10079000BF93EF93FF93E0916B05F0916C05309759
:1007A00009F00995FF91EF91BF91AF919F918F91C2
:1007B0007F916F915F914F913F912F910F900BBE61
:1007C0000F900FBE0F901F9018951F920F920FB6AB
:1007D0000F920BB60F9211242F933F934F935F9379
:1007E0006F937F938F939F93AF93BF93EF93FF93F9
:1007F000E0916905F0916A05309709F00995FF913C
:10080000EF91BF91AF919F918F917F916F915F9188
:100810004F913F912F910F900BBE0F900FBE0F90F5
:100820001F9018951092250110922401089520918F
:100830000002309101022817390738F0281B390BC4
:1008400030932501209324010895109225011092E0
:100850002401089583E0809321018091000290910A
:1008600001029093290180932801089590936C05CB
:1008700080936B05009731F08091730081608093C5
:1008800073000895809173008E7F809373000895A4
:1008900090936A0580936905009731F08091730009
:1008A0008260809373000895809173008D7F8093A0
:1008B000730008951F920F920FB60F920BB60F920E
:1008C00011248F939F93EF93FF9390913601809122
:1008D0007006EFE6F6E0E80FF11D92838F5F8093DC
:1008E0007006FF91EF919F918F910F900BBE0F902B
:1008F0000FBE0F901F9018951F920F920FB60F9278
:100900000BB60F9211248F939F93EF93FF939091C7
:100910006E0580916D059817B9F080916D05E82FEF
:10092000F0E0E359FA4F9281909336018F5F809304
:100930006D05FF91EF919F918F910F900BBE0F90DE
:100940000FBE0F901F901895809131018F7D80937D
:100950003101EFCF1F920F920FB60F9211240F901B
:100960000FBE0F901F901895109270068091700620
:1009700080936F0610926E0580916E0580936D05D1
:10098000E0E3F1E0808182608083E4E3F1E082E2F1
:1009900090E0918380838081918186E08093320111
:1009A000E1E3F1E088E180838081806880830895BD
:1009B0009B01AC01E0E3F1E080818260808360E034
:1009C00074E284EF90E00E9469132C5F3F4F4F4F19
:1009D0005F4FCA01B90128E030E040E050E00E94DA
:1009E000691321503040E4E3F1E03183208320811A
:1009F0003181C90108959091700680916F06981712
:100A000069F080916F06E82FF0E0E159F94F2281FB
:100A100030E08F5F80936F06C90108952FEF3FEF9D
:100A2000C901089590916E05EDE6F5E0E90FF11D1D
:100A300082839F5F90936E05E1E3F1E09081906285
:100A40009083282F332727FD3095932F0895DC01BD
:100A50008C918823C9F0119620E030E02F5F3F4F42
:100A600090916E05E92FF0E0E359FA4F82839F5F82
:100A700090936E05809131018062809331018D9158
:100A8000882361F7C901089520E030E0FBCFDF93B0
:100A9000CF93CDB7DEB7EC970FB6F894DEBF0FBE9D
:100AA000CDBFFE01EF5BFF4F41915191CE01019609
:100AB0006CE370E09F010E94C31329812223A1F0FF
:100AC000DE01129630916E05E32FF0E0E359FA4F04
:100AD00022833F5F30936E05209131012062209385
:100AE00031012D91222371F7EC960FB6F894DEBFF9
:100AF0000FBECDBFCF91DF910895E2E0F1E080819C
:100B00008F7E808380818F7D808373988081877FB3
:100B100080830895E0EAF0E08081877F8083808190
:100B2000806280830895E0EAF0E080818F7D808399
:100B30008081886080830895E0EAF0E080818F778B
:100B40008083E0E9F0E08081806880830895E0E9B7
:100B5000F0E080818F778083E0EAF0E08081806838
:100B6000808308951092AB001092AA001092AD00FD
:100B70001092AC0010929900109298001092A90067
:100B80001092A80083E1809391008093A1008FEFE1
:100B900090E090939700809396009093A7008093A5
:100BA000A600E1E0F1E08081806180838081806245
:100BB00080836B9A8081886080830895992787FD60
:100BC0009095772767FD70959C01261B370B860F44
:100BD000971F37FD57C0203831059CF5220F30E0B4
:100BE0003093AB002093AA001092AD001092AC009D
:100BF0002091A000277F2093A0002091A0002062D8
:100C00002093A00097FD20C080389105BCF4880F88
:100C100090E090939900809398001092A900109210
:100C2000A8008091A0008F778093A0008091900011
:100C300080688093900080E090E008958FE790E0D6
:100C4000E6CF2FE730E0CACF1092990010929800BB
:100C50002FEF81389207ACF1909581959F4F880FC7
:100C600090E09093A9008093A800809190008F77E6
:100C7000809390008091A00080688093A00080E025
:100C800090E008951092AB001092AA004FEF213827
:100C90003407A4F0309521953F4F220F30E0309378
:100CA000AD002093AC002091A0002F7D2093A000E8
:100CB0002091A00028602093A000A4CF21E83FEF5E
:100CC000E9CF81E89FEFC8CFE0E8F0E08081806A5B
:100CD000808382E180938100219A229A80E197E2C9
:100CE00090938700809386008AEF95E09093890027
:100CF0008093880090938B0080938A0008959927B1
:100D000087FD9095880F991F880F991F86509A4FDD
:100D10009093890080938800772767FD7095660F10
:100D2000771F660F771F66507A4F70938B00609322
:100D30008A0080E090E00895FC01662349F080E09D
:100D400090E02191820F9F5F9617D8F380950895C8
:100D50008FEF0895FC01E650FF4F1082FC01E55033
:100D6000FF4F108284509F4FFC0111821082089522
:100D7000FC0182810895FC0182810895FC01838138
:100D80000895FC0183810895FC01838182500895B8
:100D9000FC01838182500895FC0184810895FC0147
:100DA000848108959C012B5F3F4FC90108959C01E8
:100DB0002B5F3F4FC9010895CF93DF93DB01A6500E
:100DC000BF4F9C91943090F49230E0F19F5F9C93E0
:100DD000FB01E450FF4FA081B1818D93B183A083CB
:100DE00020E030E0C901DF91CF9108959430D9F12E
:100DF000AB0145505F4F9F5F9C939B0124503F4F39
:100E0000E901E881F9818193F983E8832C91FA0162
:100E100090812917D0F1522F535009F443C0FB01A0
:100E2000329690E030E04191340F9F5F9517D8F3F0
:100E300030958317A1F12FEF3FEF1C92C901DF918D
:100E4000CF910895992339F5FB01E450FF4F718349
:100E500060838F3F09F4BACF1C9220E030E0C901D3
:100E6000DF91CF910895EB012B81322F3C5FAB01D5
:100E700045505F4FFA0130832250253F08F4BBCF25
:100E80001C92108220E030E0ADCF20E030E0C901BC
:100E9000DF91CF910895913009F0AACFDACF30E0F9
:100EA0001C92CCCF3FEFC5CFCF92DF92EF92FF9253
:100EB0000F931F93CF93DF9396E0C92ED12CC20ED0
:100EC000D31EEC14FD0498F1922F9E5F7FEFF80182
:100ED0007193D80111967C93DF0111968183ED0106
:100EE000219611969C93119769832296860F890FFC
:100EF0002115310579F0D8011596E42FF52F908151
:100F00009D93ED019191890F0E2F041B10E00217A4
:100F10001307A8F3809588839601C901DF91CF91CB
:100F20001F910F91FF90EF90DF90CF9008952FEFDA
:100F30003FEFF3CF8FEF9FEF0895CF93DF93FC0147
:100F4000DC01A650BF4FEB01C650DF4F88818C9368
:100F5000DB01A550BF4F4C91DF01A550BF4F4C9313
:100F6000CF0150E00E94BA1380E090E0DF91CF9172
:100F700008950E9412041092290210922802809172
:100F80007A00886080937A0080912802883090F0FF
:100F900090917C008850907E892B80937C0080917A
:100FA0007B00886080937B0080917A0080648093CE
:100FB0007A00089590917C00907E982B90937C000D
:100FC00080917B00877F80937B0080917A00806492
:100FD00080937A000895883090F090917C0088503A
:100FE000907E892B80937C0080917B008860809329
:100FF0007B0080917A00806480937A0008959091BC
:101000007C00907E982B90937C0080917B00877F62
:1010100080937B0080917A00806480937A000895A9
:101020001F920F920FB60F920BB60F9211248F934F
:101030009F93EF93FF93E0912802F0E08091780076
:1010400090917900EE0FFF1FEF58F84F9183808346
:1010500080912802833089F1809128028F5F8093EC
:101060002802809128028830E0F090917C0088501E
:10107000907E892B80937C0080917B008860809398
:101080007B0080917A00806480937A00FF91EF91D9
:101090009F918F910F900BBE0F900FBE0F901F90DE
:1010A000189590917C00907E982B90937C00809175
:1010B0007B00877F80937B00E4CF80917A00877FDD
:1010C00080937A001092280281E080932902DECF7B
:1010D000FC01809129028823F1F0809171079091A1
:1010E0007207918380838091730790917407938333
:1010F0008283809175079091760795838483809190
:10110000770790917807978386831092290224E0CD
:1011100030E0C90108952FEF3FEFC9010895EAE7D4
:10112000F0E087E0808380E480937C008081806CA5
:1011300080830E942A0489EB97E00E944804089566
:101140008830D8F090917C008850907E892B8093D5
:101150007C0080917B00886080937B0080917A0086
:10116000806480937A0080917A0086FDFCCF209184
:10117000780030917900C901089590917C00907EAB
:10118000982B90937C0080917B00877F80937B00DD
:10119000E5CF0E94F00060E074E883E090E00E94F8
:1011A000150180E090E008950F931F93CF93DF9394
:1011B000EC010E9438012FEF8F3F920739F413C0E2
:1011C0000E9438012FEF8F3F920739F0BE010E9435
:1011D000DC068C01181619069CF7C801DF91CF9127
:1011E0001F910F9108950FEF1FEFF7CFCF92DF926E
:1011F000EF92FF920F931F93DF93CF930F92CDB790
:10120000DEB7182F062FF42EE22E2F3FB9F182E021
:10121000D82ED20E8FEF59830E944F018FEF0E947C
:101220004F01812F0E944F018D2D0E944F01802F71
:101230000E944F01100F1D0D5981EE2071F04F2DAE
:101240006A01F60180810E944F01F60181916F01D0
:10125000180F8E2F8F198E15A0F3812F80950E9465
:101260004F0120E030E0C9010F90CF91DF911F9135
:101270000F91FF90EF90DF90CF9008952FEF3FEF09
:10128000F2CFEF92FF920F931F93CF93DF93FC0166
:10129000E550FF4F1081112369F0082FE82EE70178
:1012A0007E01F92EE70189910E944F017E01E01A2B
:1012B000E116C8F380E090E0DF91CF911F910F918C
:1012C000FF90EF900895EF92FF920F931F93CF93AB
:1012D000DF93182F062F662361F0E12EE7017E01D0
:1012E000F92EE70189910E944F01AE01411B401781
:1012F000C8F380E090E0DF91CF911F910F91FF90B4
:10130000EF900895109257020895809134029091C1
:101310003502019690933502809334028091340215
:10132000909135028C30910509F0089510923202A7
:101330001092330280913202609133020E94DE05E6
:101340001092B20010923502109234020895109259
:101350002B0210922A0210922D0210922C0210924F
:101360002F0210922E021092310210923002089534
:101370001092B200109235021092340208951F921A
:101380000F920FB60F9211248F939F937C9910C0E8
:1013900080912A0290912B02019690932B028093C8
:1013A0002A029F918F910F900FBE0F901F9018955A
:1013B00080912A0290912B02019790932B028093A7
:1013C0002A029F918F910F900FBE0F901F9018953A
:1013D0001F920F920FB60F9211248F939F937D99B6
:1013E00010C080912C0290912D02019690932D02B5
:1013F00080932C029F918F910F900FBE0F901F90A2
:10140000189580912C0290912D02019790932D02B6
:1014100080932C029F918F910F900FBE0F901F9081
:1014200018951F920F920FB60F9211248F939F93CE
:101430007E9910C080912E0290912F020196909378
:101440002F0280932E029F918F910F900FBE0F90CD
:101450001F90189580912E0290912F0201979093E2
:101460002F0280932E029F918F910F900FBE0F90AD
:101470001F9018951F920F920FB60F9211248F9301
:101480009F937F9910C08091300290913102019614
:1014900090933102809330029F918F910F900FBEF5
:1014A0000F901F9018958091300290913102019712
:1014B00090933102809330029F918F910F900FBED5
:1014C0000F901F901895E9E6F0E080818F6080838F
:1014D000EAE6F0E080818F6080838DB383638DBB0B
:1014E0000E94150385E899E00E941C030E94B20542
:1014F0000E94F00060E074E883E090E00E94150133
:101500000E94500260E472E48FE090E00E94720258
:101510000E94B40460E072EC81E090E00E94D80484
:101520000E94880382E899E00E94A603279A269ADF
:101530002F9A2E9A0E948F08789408950F931F93E4
:101540009B018A01BC0160507040C9010E941B16BA
:10155000C8011F910F9108950F931F939B018A015A
:10156000BC0160507040C9010E940B16C8011F9158
:101570000F910895CF92DF92EF92FF920F931F93F6
:10158000DF93CF9300D0CDB7DEB7182F042FE22E14
:101590002F3FD9F182E0D82ED20EF62EF10EFD0C9F
:1015A0008FEF5A8369830E94AE028FEF0E94AE02D2
:1015B000812F0E94AE028D2D0E94AE026981862F7E
:1015C0000E94AE025A81EE2071F0402F6A01F601AE
:1015D00080810E94AE02F60181916F01F80E8E2F7C
:1015E000801B8E15A0F38F2D80950E94AE0220E007
:1015F00030E0C9010F900F90CF91DF911F910F91B3
:10160000FF90EF90DF90CF9008952FEF3FEFF1CF55
:10161000CF92DF92EF92FF920F931F93062F982F96
:101620009C5F993008F480E0902F9C5F993008F41B
:1016300000E010913202682F772767FD7095872FA1
:10164000972F0E9467122AE939E949E95EE30E946F
:10165000F3126B017C01612F772767FD7095872F4F
:10166000972F0E94671223E333E343E35FE30E9473
:10167000F3129B01AC01C701B6010E94D0110E9478
:1016800034126093320210913302602F772767FD86
:101690007095872F972F0E9467122AE939E949E947
:1016A0005EE30E94F3126B017C01612F772767FDD7
:1016B0007095872F972F0E94671223E333E343E34C
:1016C0005FE30E94F3129B01AC01C701B6010E94C7
:1016D000D0110E94341260933302809132026091E3
:1016E00033020E94DE051092B20010923502109271
:1016F000340280E090E01F910F91FF90EF90DF9017
:10170000CF900895CF92DF92EF92FF920F931F93A5
:10171000809184079091850721E08C329207A8F090
:1017200022E088359207F8F492E080915A029817E7
:1017300089F4809186079091870722E08935920786
:10174000A0F081E08093360205C091E080915A02BA
:10175000981779F380E090E01F910F91FF90EF9040
:10176000DF90CF90089593E0F1CF109236028091F0
:101770007E0790917F078050924097FD97C0959586
:101780008795382F292F80917C0790917D07805075
:10179000924097FD8DC095958795582F492FC90187
:1017A000692F722F6038710514F06FE770E09A01AD
:1017B000832F942F8038910514F08FE790E02FEF5E
:1017C0006138720714F461E87FEF2FEF81389207D8
:1017D00014F481E89FEF182F862F8C5F893008F46E
:1017E00060E0812F8C5F893008F410E000913202B4
:1017F000772767FD7095872F972F0E9467122AE938
:1018000039E949E95EE30E94F3126B017C01602F24
:10181000772767FD7095872F972F0E94671223E324
:1018200033E343E35FE30E94F3129B01AC01C70182
:10183000B6010E94D0110E94341260933202C0900F
:101840003302612F772767FD7095872F972F0E94AE
:1018500067122AE939E949E95EE30E94F3127B0144
:101860008C016C2D772767FD7095872F972F0E942D
:10187000671223E333E343E35FE30E94F3129B0128
:10188000AC01C801B7010E94D0110E9434126093CC
:10189000330280913202609133020E94DE05109281
:1018A000B200109235021092340254CF019667CFE5
:1018B000019671CF2F923F924F925F926F927F92DB
:1018C0008F929F92AF92BF92CF92DF92EF92FF9250
:1018D0000F931F93DF93CF93CDB7DEB7CD51D24097
:1018E0000FB6F894DEBF0FBECDBF1A8619868E01E3
:1018F000055E1F4FC8010E94AA06CE01875E9E4F5B
:101900000E94AA06809169008F608093690080918F
:101910006A008F6080936A008DB383638DBB0E94E1
:10192000150385E899E00E941C030E94B2050E94FD
:10193000F00060E074E883E090E00E9415010E94EE
:10194000500260E472E48FE090E00E9472020E9414
:10195000B40460E072EC81E090E00E94D8040E9440
:10196000880382E899E00E94A603279A269A2F9A74
:101970002E9A0E948F08789460913202772767FD33
:101980007095872F972F0E94671223E333E343E379
:101990005FE30E94F31220E030E040EC5FE30E943E
:1019A000D0110E9434126093320260913302772783
:1019B00067FD7095872F972F0E94671223E333E30B
:1019C00043E35FE30E94F31220E030E0A9010E94AC
:1019D000D0110E94341260933302809132026091E0
:1019E00033020E94DE051092B2001092350210926E
:1019F00034028FEF91EEA4E081509040A040E1F7D7
:101A000000C0000060913202772767FD7095872F34
:101A1000972F0E94671223E333E343E35FE30E94BF
:101A2000F31220E030E040EC5FE30E94CF110E940F
:101A300034126093320260913302772767FD70950C
:101A4000872F972F0E94671223E333E343E35FE37B
:101A50000E94F31220E030E0A9010E94D0110E9400
:101A600034126093330280913202609133020E94FB
:101A7000DE051092B20010923502109234028FEF00
:101A800091EEA4E081509040A040E1F700C000003A
:101A900060913202772767FD7095872F972F0E94FC
:101AA000671223E333E343E35FE30E94F31220E092
:101AB00030E0A9010E94D0110E94341260933202DA
:101AC00060913302772767FD7095872F972F0E94CB
:101AD000671223E333E343E35FE30E94F31220E062
:101AE00030E0A9010E94D0110E94341260933302A9
:101AF00080913202609133020E94DE051092B200A2
:101B000010923502109234028AE592E060E070E0B3
:101B100041E050E00E940B16C55EDD4F1882CB51AC
:101B2000D2406E010894C11CD11C23E1822E912C5D
:101B30008C0E9D1E95E1492E92E0592E8BE0682E69
:101B4000712C6C0E7D1E5801C801C45EDD4F0883E8
:101B5000CC51D240C35EDD4F9883CD51D240F89432
:101B6000C6010E9468087894181619063CF4F4011E
:101B7000D60188E00D9001928150E1F70E94380172
:101B80008936910509F48EC00E949502EFEF8F3FD0
:101B90009E0709F446C0B8010E94DC061816190613
:101BA0009CF7C8010E94B806833009F4A3C08730AF
:101BB00059F71E9AC8010E94CC06813029F7C80146
:101BC0000E94D206AAE7B7E0E82FF92F8EE0019035
:101BD0000D928150E1F78091840790918507F1E0A3
:101BE0008C329F0708F46CC222E08835920708F017
:101BF000A4C282E090915A02981731F6809186072C
:101C00009091870732E08935930708F4ACC241E030
:101C1000409336020E949502EFEF8F3F9E0709F036
:101C2000BACF0E94FB04AFEF8F3F9A0709F497CF1A
:101C30001092850010928400E0915702F0E0E35783
:101C4000F84F808320915702223008F03BC28091E8
:101C500057028F5F8093570280915702803109F7B6
:101C6000809184079091850741E08C32940708F4B5
:101C7000C9C2A2E088359A0708F0D6C282E09091E6
:101C80005A02981709F4C4C21092570281E0809357
:101C900059021E9A0E94FB04AFEF8F3F9A0709F486
:101CA0005ECFC6CF0E943801AFEF8F3F9A07D1F3C6
:101CB000805380935A0280915A02882329F08091A0
:101CC0005A02843008F419C280915A0200D000D020
:101CD000EDB7FEB73196ADB7BEB712965C924E9295
:101CE0001197828313820E9484010F900F900F90AE
:101CF0000F904ACF1E9AC8010E94CC06823009F488
:101D00004FC1833008F062C0882309F03DCFF894BA
:101D1000F301AAE2B2E088E00D9001928150E1F770
:101D200010922B0210922A0210922D0210922C0275
:101D300010922F0210922E02109231021092300255
:101D400078948B859C85909581959F4F9C878B87F8
:101D50008F859889909581959F4F988B8F87C80123
:101D60000E94D206FC01808191819A87898719E0BF
:101D7000E12EF12CEC0EFD1E8FEF0E94AE028FEFD4
:101D80000E94AE0283E00E94AE0284E10E94AE0295
:101D900081E00E94AE02C45EDD4F0881CC51D2408A
:101DA000C35EDD4F1881CD51D240B8E12B2ED70153
:101DB0003D907D01832D0E94AE02230CEA14FB04AA
:101DC000B1F7822D80950E94AE02DECE843009F4F8
:101DD000C5C0863009F0D8CEF894F301AAE2B2E08B
:101DE00088E00D9001928150E1F710922B02109241
:101DF0002A0210922D0210922C0210922F021092A1
:101E00002E02109231021092300278948B859C85BC
:101E1000909581959F4F9C878B878F85988990950A
:101E200081959F4F988B8F87C8010E94D2067C01B5
:101E3000DC018D919C919A8789878FEF0E94AE0279
:101E40008FEF0E94AE0283E00E94AE028CE00E94FF
:101E5000AE0281E00E94AE023984832D0E94AE0260
:101E6000B0E13B0E2A84822D0E94AE02320CF301B7
:101E70002080822D0E94AE02320C2C84822D0E9482
:101E8000AE02320C2D84822D0E94AE02320C2E84C2
:101E9000822D0E94AE02320C2F84822D0E94AE024F
:101EA000320C2888822D0E94AE02320C2988822DA5
:101EB0000E94AE02320C2A88822D0E94AE02832D2F
:101EC000820D80950E94AE02F70182819381A481E8
:101ED000B58180933F0290934002A0934102B0935A
:101EE000420286819781A085B185809343029093B9
:101EF0004402A0934502B093460282859385A4854F
:101F0000B5858093470290934802A0934902B0930D
:101F10004A0286859785A089B18980934B02909368
:101F20004C02A0934D02B0934E0282899389A489FA
:101F3000B58980934F0290935002A0935102B093C1
:101F4000520286899789A08DB18D80935302909318
:101F50005402A0935502B093560216CEC8010E94B7
:101F6000D20620913602213009F00ECEFC0180818C
:101F70009181A281B3818093370290933802A0931C
:101F80003902B0933A0284819581A681B78180930A
:101F90003B0290933C02A0933D02B0933E02F4CDED
:101FA000C8010E94D20620913602213009F0ECCD02
:101FB000FC0160818181962F9C5F993008F460E07C
:101FC000982F9C5F993008F079C0EE24309032024F
:101FD000772767FD7095872F972F0E9467122AE950
:101FE00039E949E95EE30E94F312C95EDD4F688377
:101FF00079838A839B83C751D240632D772767FDFE
:102000007095872F972F0E94671223E333E343E3F2
:102010005FE30E94F3129B01AC01C95EDD4F688152
:1020200079818A819B81C751D2400E94D0110E9440
:10203000341260933202309033026E2D772767FDA1
:102040007095872F972F0E9467122AE939E949E98D
:102050005EE30E94F312C95EDD4F688379838A8351
:102060009B83C751D240632D772767FD7095872FDB
:10207000972F0E94671223E333E343E35FE30E9459
:10208000F3129B01AC01C95EDD4F688179818A81C1
:102090009B81C751D2400E94D0110E94341260939C
:1020A000330280913202609133020E94DE05109269
:1020B000B200109235021092340266CDE82E86CF1F
:1020C00081E098CD209157022F5F209357022091F5
:1020D000570220FF34C09C012C7330703595279532
:1020E00035952795C55EDD4F2883CB51D2402730EB
:1020F00008F47BC010925702AFCD8AE592E060E011
:1021000070E041E050E00E941B1680915A0200D01E
:1021100000D0EDB7FEB7319622E032E0ADB7BEB7E2
:1021200012963C932E931197828313820E9484010E
:102130000F900F900F900F9027CD83E05BCDC55E81
:10214000DD4F3881CB51D240E32FFF27E7FDF095DB
:10215000EE0FFF1FE658F84F20813181280F391FFD
:102160003183208379CD1092360280917E07909141
:102170007F078050924097FD5BC095958795382FDB
:10218000292F80917C0790917D078050924097FD88
:102190004DC095958795582F492FC901692F722FEA
:1021A0006038710514F06FE770E09A01832F942F67
:1021B0008038910514F08FE790E0AFEF61387A072F
:1021C00014F461E87FEFBFEF81389B0714F481E8D6
:1021D0009FEFE82E862F8C5F893008F460E08E2D0B
:1021E0008C5F893008F4F1CEF1CEE22FFF27E7FDB6
:1021F000F095EE0FFF1FE658F84F83709070108235
:1022000081832ACD81E090915A02981709F03CCD44
:102210008091860790918707B2E089359B0750F03F
:10222000E1E0E093360230CD83E029CD0196B1CFD5
:102230000196A3CF1092360280917E0790917F077E
:102240008050924062E070E00E9456139B018091A2
:102250007C0790917D078050924062E070E00E9480
:102260005613822F932F8038910514F08FE790E05A
:10227000262F372F2038310514F02FE730E0FFEFFD
:1022800081389F0714F481E89FEF4FEF213834071E
:1022900014F421E83FEFE22E982F9C5F993008F468
:1022A00080E09E2D9C5F993008F4EE24309032023D
:1022B000682F772767FD7095872F972F0E946712E9
:1022C0002AE939E949E95EE30E94F312C95EDD4F6C
:1022D000688379838A839B83C751D240632D772794
:1022E00067FD7095872F972F0E94671223E333E3D2
:1022F00043E35FE30E94F3129B01AC01C95EDD4F33
:10230000688179818A819B81C751D2400E94D01116
:102310000E94341260933202309033026E2D772780
:1023200067FD7095872F972F0E9467122AE939E978
:1023300049E95EE30E94F312C95EDD4F6883798349
:102340008A839B83C751D240632D772767FD7095A1
:10235000872F972F0E94671223E333E343E35FE362
:102360000E94F3129B01AC01C95EDD4F6881798147
:102370008A819B81C751D2400E94D0110E943412A1
:102380006093330280913202609133020E94DE0535
:102390001092B200109235021092340275CC50584F
:1023A000BB27AA270ED0E5C0D6D030F0DBD020F076
:1023B00031F49F3F11F41EF4CBC00EF4E095E7FB1F
:1023C000C1C0E92FE7D080F3BA176207730784070B
:1023D000950718F071F49EF5FFC00EF4E0950B2EF2
:1023E000BA2FA02D0B01B90190010C01CA01A00167
:1023F0001124FF27591B99F0593F50F4503E68F1C2
:102400001A16F040A22F232F342F4427585FF3CF02
:10241000469537952795A795F0405395C9F77EF4D3
:102420001F16BA0B620B730B840BBAF09150A1F01C
:10243000FF0FBB1F661F771F881FC2F70EC0BA0FA2
:10244000621F731F841F48F4879577956795B7952A
:10245000F7959E3F08F0B3CF9395880F08F0992722
:10246000EE0F97958795089504D06894B111B5C083
:10247000089598D088F09F5790F0B92F9927B751B9
:10248000A0F0D1F0660F771F881F991F1AF0BA9538
:10249000C9F712C0B13081F09FD0B1E008959CC05F
:1024A000672F782F8827B85F39F0B93FCCF386952E
:1024B00077956795B395D9F73EF49095809570958B
:1024C00061957F4F8F4F9F4F0895E89409C097FB08
:1024D0003EF490958095709561957F4F8F4F9F4FFB
:1024E0009923A9F0F92F96E9BB279395F69587953F
:1024F00077956795B795F111F8CFFAF4BB0F11F402
:1025000060FF1BC06F5F7F4F8F4F9F4F16C08823A8
:1025100011F096E911C0772321F09EE8872F762FDE
:1025200005C0662371F096E8862F70E060E02AF01F
:102530009A95660F771F881FDAF7880F969587950B
:1025400097F9089597F99F6780E870E060E0089533
:102550009FEF80EC089500240A94161617061806BB
:102560000906089500240A94121613061406050697
:102570000895092E0394000C11F4882352F0BB0F28
:1025800040F4BF2B11F460FF04C06F5F7F4F8F4F8B
:102590009F4F089557FD9058440F551F59F05F3FC6
:1025A00071F04795880F97FB991F61F09F3F79F075
:1025B00087950895121613061406551FF2CF4695F7
:1025C000F1DF08C0161617061806991FF1CF869579
:1025D0007105610508940895E894BB27662777275D
:1025E000CB0197F908950BD0C4CFB5DF28F0BADF3F
:1025F00018F0952309F0A6CFABCF1124EECFCADF98
:10260000A0F3959FD1F3950F50E0551F629FF00105
:10261000729FBB27F00DB11D639FAA27F00DB11D5E
:10262000AA1F649F6627B00DA11D661F829F2227E7
:10263000B00DA11D621F739FB00DA11D621F839F6E
:10264000A00D611D221F749F3327A00D611D231F44
:10265000849F600D211D822F762F6A2F11249F5792
:1026600050408AF0E1F088234AF0EE0FFF1FBB1FB5
:10267000661F771F881F91505040A9F79E3F510554
:1026800070F060CFAACF5F3FECF3983EDCF3869505
:1026900077956795B795F795E7959F5FC1F7FE2BFF
:1026A000880F911D9695879597F9089597FB092EA8
:1026B00007260AD077FD04D027D006D000201AF4D0
:1026C000709561957F4F0895F6F7909581959F4F8E
:1026D000089597FB092E05260ED057FD04D028D06B
:1026E0000AD0001C38F450954095309521953F4F05
:1026F0004F4F5F4F0895F6F79095809570956195CF
:102700007F4F8F4F9F4F0895AA1BBB1B51E107C0FE
:10271000AA1FBB1FA617B70710F0A61BB70B881F71
:10272000991F5A95A9F780959095BC01CD01089500
:10273000A1E21A2EAA1BBB1BFD010DC0AA1FBB1FC5
:10274000EE1FFF1FA217B307E407F50720F0A21B37
:10275000B30BE40BF50B661F771F881F991F1A94A4
:1027600069F760957095809590959B01AC01BD01CE
:10277000CF010895FB01DC0102C001900D92415090
:102780005040D8F708950F931F93DF93CF93CDB7A1
:10279000DEB72E970FB6F894DEBF0FBECDBF8C010B
:1027A000CB01BA0146E04C831A83098397FF02C02C
:1027B00080E090E801979E838D83CE010196A90168
:1027C0000E94FB134D815E8157FD0AC02F81388521
:1027D000421753070CF49A01020F131FF8011082DD
:1027E0002E960FB6F894DEBF0FBECDBFCF91DF910E
:1027F0001F910F9108952F923F924F925F926F9287
:102800007F928F929F92AF92BF92CF92DF92EF9280
:10281000FF920F931F93DF93CF93CDB7DEB72C9723
:102820000FB6F894DEBF0FBECDBF6C011B018A014D
:10283000FC0117821682838181FFD1C12E01089489
:10284000411C511CF6019381F10193FD859193FF89
:1028500081911F01882309F4BEC1853239F493FDAB
:10286000859193FF81911F01853229F490E0B60193
:102870000E944916E7CFEE24FF2420E02032B0F476
:102880008B3269F08C3228F4803251F0833271F44B
:102890000BC08D3239F0803349F421602CC02260A6
:1028A000246029C0286027C0206125C027FD2CC0D6
:1028B000382F30533A3098F426FF08C08E2D880FF9
:1028C000E82EEE0CEE0CE80EE30E15C08F2D880FEF
:1028D000F82EFF0CFF0CF80EF30E20620CC08E32A7
:1028E00021F426FD78C1206406C08C3611F42068DE
:1028F00002C0883649F4F10193FD859193FF8191DF
:102900001F01882309F0BACF982F9554933018F0FF
:102910009052933028F40C5F1F4FFFE3F9830DC0F2
:10292000833631F0833771F0833509F060C022C0FF
:10293000F801808189830E5F1F4F420171E0A72E4D
:10294000B12C16C062E0662E712C600E711EF8016B
:102950008080918026FF03C06E2D70E002C06FEF73
:102960007FEFC4012C870E943E165C0183012C85F9
:102970002F7717C052E0652E712C600E711EF80182
:102980008080918026FF03C06E2D70E002C06FEF43
:102990007FEFC4012C870E9433165C012C852068D0
:1029A000830123FD20C008C080E290E0B6012C879F
:1029B0000E944916FA942C858F2D90E0A816B9062E
:1029C00098F311C0F40127FD859127FF81914F01F4
:1029D00090E0B6012C870E9449162C85F110FA94DC
:1029E0000894A108B108A114B10461F7F1C08436BC
:1029F00011F0893649F527FF08C0F801608171811F
:102A0000828193810C5F1F4F09C0F8016081718141
:102A1000882777FD8095982F0E5F1F4F4FE6B42EC5
:102A2000B22297FF09C090958095709561957F4F70
:102A30008F4F9F4FF0E8BF2AA2012AE030E00E94AA
:102A40007516782E741845C0853731F43FEEB32ED5
:102A5000B2222AE030E025C099EFB92EB2228F369B
:102A6000C1F0803720F4883509F0B5C00DC080373B
:102A700021F0883709F0AFC002C020E1B22AB4FECD
:102A80000BC084E0B82A08C0B4FE09C0E6E0BE2A44
:102A900006C028E030E005C020E130E002C020E1BF
:102AA00032E0B7FE08C0F8016081718182819381B4
:102AB0000C5F1F4F07C0F8016081718180E090E0DA
:102AC0000E5F1F4FA2010E947516782E7418FFE743
:102AD000BF22B6FE0BC02EEFB2227E1438F4B4FE35
:102AE00007C0B2FC05C08FEEB82202C0A72C01C0FF
:102AF000AE2C8B2D90E0B4FE0DC0FE01E70DF11D54
:102B00002081203319F4E9EEBE2209C0A394B2FE5D
:102B100006C004C086789070009709F0A3948B2CAF
:102B20009924B3FC14C0B0FE0FC0AF1428F4E72CF6
:102B3000EF0CEA18AF2C08C0E72C06C080E290E04A
:102B4000B6010E944916A394AF14C0F304C0AF1499
:102B500010F4FA1801C0FF2484FE0FC080E390E057
:102B6000B6010E94491682FE1FC081FE03C088E59F
:102B700090E010C088E790E00DC0C40186789070A6
:102B8000009791F081FC02C080E201C08BE2B7FCAB
:102B90008DE290E0B6010E94491606C080E390E005
:102BA000B6010E944916EA947E14C0F37A94F201A9
:102BB000E70DF11D808190E0B6010E944916772053
:102BC000A9F706C080E290E0B6010E944916FA9487
:102BD000FF20C1F737CEF6012681378102C02FEFE3
:102BE0003FEFC9012C960FB6F894DEBF0FBECDBFE4
:102BF000CF91DF911F910F91FF90EF90DF90CF90D9
:102C0000BF90AF909F908F907F906F905F904F900C
:102C10003F902F900895DC01CB01FC01F999FECF84
:102C200006C0F2BDE1BDF89A319600B40D92415054
:102C30005040B8F70895DC01CB0103C02D910E94EC
:102C4000261641505040D0F70895262FF999FECF0F
:102C50001FBA92BD81BD20BD0FB6F894FA9AF99AB9
:102C60000FBE01960895FC0105906150704001105F
:102C7000D8F7809590958E0F9F1F0895FC016150A5
:102C8000704001900110D8F7809590958E0F9F1F8E
:102C900008950F931F93CF93DF938C01EB018B81EA
:102CA00081FF1BC082FF0DC02E813F818C819D81E1
:102CB0002817390764F4E881F9810193F983E883DF
:102CC00006C0E885F985802F0995009731F48E813B
:102CD0009F8101969F838E8302C00FEF1FEFC80173
:102CE000DF91CF911F910F910895FA01AA27283003
:102CF00051F1203181F1E8946F936E7F6E5F7F4FC9
:102D00008F4F9F4FAF4FB1E03ED0B4E03CD0670F44
:102D1000781F891F9A1FA11D680F791F8A1F911D97
:102D2000A11D6A0F711D811D911DA11D20D009F4E7
:102D300068943F912AE0269F11243019305D319329
:102D4000DEF6CF010895462F4770405D4193B3E012
:102D50000FD0C9F7F6CF462F4F70405D4A3318F0B9
:102D6000495D31FD4052419302D0A9F7EACFB4E06A
:102D7000A6959795879577956795BA95C9F7009722
:102D80006105710508959B01AC010A2E06945795C3
:102D9000479537952795BA95C9F7620F731F841F1A
:0A2DA000951FA01D0895F894FFCFC1
:102DAA00A8616368616E67656420696420746F2036
:102DBA0025640D0A00696E76616C69642069642075
:082DCA003A2025640D0A000106
:00000001FF
